{
  "contractName": "SupplyChain",
  "abi": [
    {
      "anonymous": false,
      "inputs": [
        {
          "indexed": true,
          "internalType": "address",
          "name": "previousOwner",
          "type": "address"
        },
        {
          "indexed": true,
          "internalType": "address",
          "name": "newOwner",
          "type": "address"
        }
      ],
      "name": "OwnershipTransferred",
      "type": "event"
    },
    {
      "anonymous": false,
      "inputs": [
        {
          "indexed": false,
          "internalType": "uint256",
          "name": "_itemIndex",
          "type": "uint256"
        },
        {
          "indexed": false,
          "internalType": "uint256",
          "name": "_step",
          "type": "uint256"
        },
        {
          "indexed": false,
          "internalType": "address",
          "name": "_itemAddress",
          "type": "address"
        }
      ],
      "name": "SupplyChainStep",
      "type": "event"
    },
    {
      "inputs": [
        {
          "internalType": "uint256",
          "name": "",
          "type": "uint256"
        }
      ],
      "name": "items",
      "outputs": [
        {
          "internalType": "contract Item",
          "name": "_item",
          "type": "address"
        },
        {
          "internalType": "string",
          "name": "_identifier",
          "type": "string"
        },
        {
          "internalType": "uint256",
          "name": "_itemPrice",
          "type": "uint256"
        },
        {
          "internalType": "enum SupplyChain.State",
          "name": "_state",
          "type": "uint8"
        }
      ],
      "stateMutability": "view",
      "type": "function",
      "constant": true
    },
    {
      "inputs": [],
      "name": "owner",
      "outputs": [
        {
          "internalType": "address",
          "name": "",
          "type": "address"
        }
      ],
      "stateMutability": "view",
      "type": "function",
      "constant": true
    },
    {
      "inputs": [],
      "name": "renounceOwnership",
      "outputs": [],
      "stateMutability": "nonpayable",
      "type": "function"
    },
    {
      "inputs": [
        {
          "internalType": "address",
          "name": "newOwner",
          "type": "address"
        }
      ],
      "name": "transferOwnership",
      "outputs": [],
      "stateMutability": "nonpayable",
      "type": "function"
    },
    {
      "inputs": [
        {
          "internalType": "string",
          "name": "_identifier",
          "type": "string"
        },
        {
          "internalType": "uint256",
          "name": "_itemPrice",
          "type": "uint256"
        }
      ],
      "name": "createItem",
      "outputs": [],
      "stateMutability": "nonpayable",
      "type": "function"
    },
    {
      "inputs": [
        {
          "internalType": "uint256",
          "name": "_itemIndex",
          "type": "uint256"
        }
      ],
      "name": "triggerPayment",
      "outputs": [],
      "stateMutability": "payable",
      "type": "function",
      "payable": true
    },
    {
      "inputs": [
        {
          "internalType": "uint256",
          "name": "_itemIndex",
          "type": "uint256"
        }
      ],
      "name": "triggerDispatch",
      "outputs": [],
      "stateMutability": "nonpayable",
      "type": "function"
    }
  ],
  "bytecode": "0x608060405234801561001057600080fd5b5061002d61002261003260201b60201c565b61003a60201b60201c565b6100fe565b600033905090565b60008060009054906101000a900473ffffffffffffffffffffffffffffffffffffffff169050816000806101000a81548173ffffffffffffffffffffffffffffffffffffffff021916908373ffffffffffffffffffffffffffffffffffffffff1602179055508173ffffffffffffffffffffffffffffffffffffffff168173ffffffffffffffffffffffffffffffffffffffff167f8be0079c531659141344cd1fd0a4f28419497f9722a3daafe3b4186f6b6457e060405160405180910390a35050565b611c138061010d6000396000f3fe6080604052600436106200007a5760003560e01c80638da5cb5b11620000555780638da5cb5b14620000e7578063ab195b101462000117578063bfb231d21462000145578063f2fde38b146200018c576200007a565b8063715018a6146200007f578063800fb83f14620000995780638c55174214620000b9575b600080fd5b3480156200008c57600080fd5b5062000097620001ba565b005b620000b76004803603810190620000b1919062000cf2565b6200024b565b005b348015620000c657600080fd5b50620000e56004803603810190620000df919062000c8c565b62000406565b005b348015620000f457600080fd5b50620000ff62000627565b6040516200010e919062000e7d565b60405180910390f35b3480156200012457600080fd5b506200014360048036038101906200013d919062000cf2565b62000650565b005b3480156200015257600080fd5b506200017160048036038101906200016b919062000cf2565b62000833565b60405162000183949392919062000e9a565b60405180910390f35b3480156200019957600080fd5b50620001b86004803603810190620001b2919062000c5a565b62000920565b005b620001c462000a24565b73ffffffffffffffffffffffffffffffffffffffff16620001e462000627565b73ffffffffffffffffffffffffffffffffffffffff16146200023d576040517f08c379a0000000000000000000000000000000000000000000000000000000008152600401620002349062000f91565b60405180910390fd5b62000249600062000a2c565b565b34600160008381526020019081526020016000206002015414620002a6576040517f08c379a00000000000000000000000000000000000000000000000000000000081526004016200029d9062000f4d565b60405180910390fd5b60006002811115620002bd57620002bc62001286565b5b6001600083815260200190815260200160002060030160009054906101000a900460ff166002811115620002f657620002f562001286565b5b1462000339576040517f08c379a0000000000000000000000000000000000000000000000000000000008152600401620003309062000fb3565b60405180910390fd5b600180600083815260200190815260200160002060030160006101000a81548160ff0219169083600281111562000375576200037462001286565b5b02179055507fa4035636e99f06b7651a604c1019fa4e8779fe68ef27eeb74dff2de348f6199b8160016002811115620003b357620003b262001286565b5b6001600085815260200190815260200160002060000160009054906101000a900473ffffffffffffffffffffffffffffffffffffffff16604051620003fb9392919062000fd5565b60405180910390a150565b6200041062000a24565b73ffffffffffffffffffffffffffffffffffffffff166200043062000627565b73ffffffffffffffffffffffffffffffffffffffff161462000489576040517f08c379a0000000000000000000000000000000000000000000000000000000008152600401620004809062000f91565b60405180910390fd5b600030826002546040516200049e9062000af0565b620004ac9392919062000eee565b604051809103906000f080158015620004c9573d6000803e3d6000fd5b5090508060016000600254815260200190815260200160002060000160006101000a81548173ffffffffffffffffffffffffffffffffffffffff021916908373ffffffffffffffffffffffffffffffffffffffff1602179055508260016000600254815260200190815260200160002060010190805190602001906200055192919062000afe565b508160016000600254815260200190815260200160002060020181905550600060016000600254815260200190815260200160002060030160006101000a81548160ff02191690836002811115620005ae57620005ad62001286565b5b02179055507fa4035636e99f06b7651a604c1019fa4e8779fe68ef27eeb74dff2de348f6199b60025460006002811115620005ee57620005ed62001286565b5b83604051620006009392919062000fd5565b60405180910390a1600260008154809291906200061d9062001209565b9190505550505050565b60008060009054906101000a900473ffffffffffffffffffffffffffffffffffffffff16905090565b6200065a62000a24565b73ffffffffffffffffffffffffffffffffffffffff166200067a62000627565b73ffffffffffffffffffffffffffffffffffffffff1614620006d3576040517f08c379a0000000000000000000000000000000000000000000000000000000008152600401620006ca9062000f91565b60405180910390fd5b60016002811115620006ea57620006e962001286565b5b6001600083815260200190815260200160002060030160009054906101000a900460ff16600281111562000723576200072262001286565b5b1462000766576040517f08c379a00000000000000000000000000000000000000000000000000000000081526004016200075d9062000f6f565b60405180910390fd5b60026001600083815260200190815260200160002060030160006101000a81548160ff02191690836002811115620007a357620007a262001286565b5b02179055507fa4035636e99f06b7651a604c1019fa4e8779fe68ef27eeb74dff2de348f6199b81600280811115620007e057620007df62001286565b5b6001600085815260200190815260200160002060000160009054906101000a900473ffffffffffffffffffffffffffffffffffffffff16604051620008289392919062000fd5565b60405180910390a150565b60016020528060005260406000206000915090508060000160009054906101000a900473ffffffffffffffffffffffffffffffffffffffff16908060010180546200087e906200119d565b80601f0160208091040260200160405190810160405280929190818152602001828054620008ac906200119d565b8015620008fd5780601f10620008d157610100808354040283529160200191620008fd565b820191906000526020600020905b815481529060010190602001808311620008df57829003601f168201915b5050505050908060020154908060030160009054906101000a900460ff16905084565b6200092a62000a24565b73ffffffffffffffffffffffffffffffffffffffff166200094a62000627565b73ffffffffffffffffffffffffffffffffffffffff1614620009a3576040517f08c379a00000000000000000000000000000000000000000000000000000000081526004016200099a9062000f91565b60405180910390fd5b600073ffffffffffffffffffffffffffffffffffffffff168173ffffffffffffffffffffffffffffffffffffffff16141562000a16576040517f08c379a000000000000000000000000000000000000000000000000000000000815260040162000a0d9062000f2b565b60405180910390fd5b62000a218162000a2c565b50565b600033905090565b60008060009054906101000a900473ffffffffffffffffffffffffffffffffffffffff169050816000806101000a81548173ffffffffffffffffffffffffffffffffffffffff021916908373ffffffffffffffffffffffffffffffffffffffff1602179055508173ffffffffffffffffffffffffffffffffffffffff168173ffffffffffffffffffffffffffffffffffffffff167f8be0079c531659141344cd1fd0a4f28419497f9722a3daafe3b4186f6b6457e060405160405180910390a35050565b610767806200147783390190565b82805462000b0c906200119d565b90600052602060002090601f01602090048101928262000b30576000855562000b7c565b82601f1062000b4b57805160ff191683800117855562000b7c565b8280016001018555821562000b7c579182015b8281111562000b7b57825182559160200191906001019062000b5e565b5b50905062000b8b919062000b8f565b5090565b5b8082111562000baa57600081600090555060010162000b90565b5090565b600062000bc562000bbf846200103b565b62001012565b90508281526020810184848401111562000be45762000be362001318565b5b62000bf184828562001158565b509392505050565b60008135905062000c0a8162001442565b92915050565b600082601f83011262000c285762000c2762001313565b5b813562000c3a84826020860162000bae565b91505092915050565b60008135905062000c54816200145c565b92915050565b60006020828403121562000c735762000c7262001322565b5b600062000c838482850162000bf9565b91505092915050565b6000806040838503121562000ca65762000ca562001322565b5b600083013567ffffffffffffffff81111562000cc75762000cc66200131d565b5b62000cd58582860162000c10565b925050602062000ce88582860162000c43565b9150509250929050565b60006020828403121562000d0b5762000d0a62001322565b5b600062000d1b8482850162000c43565b91505092915050565b62000d2f816200108d565b82525050565b62000d4081620010e0565b82525050565b62000d5181620010f4565b82525050565b62000d628162001108565b82525050565b600062000d758262001071565b62000d8181856200107c565b935062000d9381856020860162001167565b62000d9e8162001327565b840191505092915050565b600062000db86026836200107c565b915062000dc58262001338565b604082019050919050565b600062000ddf601b836200107c565b915062000dec8262001387565b602082019050919050565b600062000e066017836200107c565b915062000e1382620013b0565b602082019050919050565b600062000e2d6020836200107c565b915062000e3a82620013d9565b602082019050919050565b600062000e54601a836200107c565b915062000e618262001402565b602082019050919050565b62000e7781620010d6565b82525050565b600060208201905062000e94600083018462000d24565b92915050565b600060808201905062000eb1600083018762000d35565b818103602083015262000ec5818662000d68565b905062000ed6604083018562000e6c565b62000ee5606083018462000d57565b95945050505050565b600060608201905062000f05600083018662000d46565b62000f14602083018562000e6c565b62000f23604083018462000e6c565b949350505050565b6000602082019050818103600083015262000f468162000da9565b9050919050565b6000602082019050818103600083015262000f688162000dd0565b9050919050565b6000602082019050818103600083015262000f8a8162000df7565b9050919050565b6000602082019050818103600083015262000fac8162000e1e565b9050919050565b6000602082019050818103600083015262000fce8162000e45565b9050919050565b600060608201905062000fec600083018662000e6c565b62000ffb602083018562000e6c565b6200100a604083018462000d24565b949350505050565b60006200101e62001031565b90506200102c8282620011d3565b919050565b6000604051905090565b600067ffffffffffffffff821115620010595762001058620012e4565b5b620010648262001327565b9050602081019050919050565b600081519050919050565b600082825260208201905092915050565b60006200109a82620010b6565b9050919050565b6000819050620010b1826200142b565b919050565b600073ffffffffffffffffffffffffffffffffffffffff82169050919050565b6000819050919050565b6000620010ed8262001130565b9050919050565b600062001101826200111c565b9050919050565b60006200111582620010a1565b9050919050565b6000620011298262001144565b9050919050565b60006200113d8262001144565b9050919050565b60006200115182620010b6565b9050919050565b82818337600083830152505050565b60005b83811015620011875780820151818401526020810190506200116a565b8381111562001197576000848401525b50505050565b60006002820490506001821680620011b657607f821691505b60208210811415620011cd57620011cc620012b5565b5b50919050565b620011de8262001327565b810181811067ffffffffffffffff821117156200120057620011ff620012e4565b5b80604052505050565b60006200121682620010d6565b91507fffffffffffffffffffffffffffffffffffffffffffffffffffffffffffffffff8214156200124c576200124b62001257565b5b600182019050919050565b7f4e487b7100000000000000000000000000000000000000000000000000000000600052601160045260246000fd5b7f4e487b7100000000000000000000000000000000000000000000000000000000600052602160045260246000fd5b7f4e487b7100000000000000000000000000000000000000000000000000000000600052602260045260246000fd5b7f4e487b7100000000000000000000000000000000000000000000000000000000600052604160045260246000fd5b600080fd5b600080fd5b600080fd5b600080fd5b6000601f19601f8301169050919050565b7f4f776e61626c653a206e6577206f776e657220697320746865207a65726f206160008201527f6464726573730000000000000000000000000000000000000000000000000000602082015250565b7f4f6e6c792066756c6c207061796d656e74732061636365707465640000000000600082015250565b7f4974656d207374617465206d75737420696e2050616964000000000000000000600082015250565b7f4f776e61626c653a2063616c6c6572206973206e6f7420746865206f776e6572600082015250565b7f4974656d207374617465206d75737420696e2043726561746564000000000000600082015250565b600381106200143f576200143e62001286565b5b50565b6200144d816200108d565b81146200145957600080fd5b50565b6200146781620010d6565b81146200147357600080fd5b5056fe608060405234801561001057600080fd5b50604051610767380380610767833981810160405281019061003291906100b3565b816000819055508060018190555082600360006101000a81548173ffffffffffffffffffffffffffffffffffffffff021916908373ffffffffffffffffffffffffffffffffffffffff160217905550505050610187565b60008151905061009881610159565b92915050565b6000815190506100ad81610170565b92915050565b6000806000606084860312156100cc576100cb610154565b5b60006100da86828701610089565b93505060206100eb8682870161009e565b92505060406100fc8682870161009e565b9150509250925092565b60006101118261012a565b9050919050565b600061012382610106565b9050919050565b600073ffffffffffffffffffffffffffffffffffffffff82169050919050565b6000819050919050565b600080fd5b61016281610118565b811461016d57600080fd5b50565b6101798161014a565b811461018457600080fd5b50565b6105d1806101966000396000f3fe6080604052600436106100385760003560e01c80632986c0e5146102435780633c8da5881461026e57806389794d001461029957610241565b3661024157600060025414610082576040517f08c379a000000000000000000000000000000000000000000000000000000000815260040161007990610396565b60405180910390fd5b34600054146100c6576040517f08c379a00000000000000000000000000000000000000000000000000000000081526004016100bd906103d6565b60405180910390fd5b34600260008282546100d89190610438565b925050819055506000600360009054906101000a900473ffffffffffffffffffffffffffffffffffffffff1673ffffffffffffffffffffffffffffffffffffffff163460015460405160240161012e91906103f6565b6040516020818303038152906040527f800fb83f000000000000000000000000000000000000000000000000000000007bffffffffffffffffffffffffffffffffffffffffffffffffffffffff19166020820180517bffffffffffffffffffffffffffffffffffffffffffffffffffffffff83818316178352505050506040516101b8919061037f565b60006040518083038185875af1925050503d80600081146101f5576040519150601f19603f3d011682016040523d82523d6000602084013e6101fa565b606091505b505090508061023e576040517f08c379a0000000000000000000000000000000000000000000000000000000008152600401610235906103b6565b60405180910390fd5b50005b005b34801561024f57600080fd5b506102586102c4565b60405161026591906103f6565b60405180910390f35b34801561027a57600080fd5b506102836102ca565b60405161029091906103f6565b60405180910390f35b3480156102a557600080fd5b506102ae6102d0565b6040516102bb91906103f6565b60405180910390f35b60015481565b60005481565b60025481565b60006102e182610411565b6102eb818561041c565b93506102fb818560208601610498565b80840191505092915050565b6000610314601483610427565b915061031f826104fa565b602082019050919050565b6000610337602c83610427565b915061034282610523565b604082019050919050565b600061035a601a83610427565b915061036582610572565b602082019050919050565b6103798161048e565b82525050565b600061038b82846102d6565b915081905092915050565b600060208201905081810360008301526103af81610307565b9050919050565b600060208201905081810360008301526103cf8161032a565b9050919050565b600060208201905081810360008301526103ef8161034d565b9050919050565b600060208201905061040b6000830184610370565b92915050565b600081519050919050565b600081905092915050565b600082825260208201905092915050565b60006104438261048e565b915061044e8361048e565b9250827fffffffffffffffffffffffffffffffffffffffffffffffffffffffffffffffff03821115610483576104826104cb565b5b828201905092915050565b6000819050919050565b60005b838110156104b657808201518184015260208101905061049b565b838111156104c5576000848401525b50505050565b7f4e487b7100000000000000000000000000000000000000000000000000000000600052601160045260246000fd5b7f4974656d206973207061696420616c7265616479000000000000000000000000600082015250565b7f546865207472616e73616374696f6e207761736e27742073756363657373667560008201527f6c2c2063616e63656c696e670000000000000000000000000000000000000000602082015250565b7f4f6e6c792066756c6c207061796d656e747320616c6c6f77656400000000000060008201525056fea264697066735822122097044d6b220d85824d62eeb6b555c2d66c45368c7ae29a9139db0703c642175364736f6c63430008070033a2646970667358221220af37e6f16fffa3cc9c0227a94df9d66d642cc9604b115145da6b20dec4a5e49f64736f6c63430008070033",
  "immutableReferences": {},
  "source": "// SPDX-License-Identifier: GPL-3.0\npragma solidity >=0.7.0 <0.9.0;\n\nimport \"./OpenZeppelinOwnable.sol\";\n\ncontract Item {\n    uint public priceInWei;\n    uint public index;\n    uint public pricePaid;\n\n    SupplyChain parentContract;\n\n    constructor(SupplyChain _parentContract, uint _priceInWei, uint _index) {\n        priceInWei = _priceInWei;\n        index = _index;\n        parentContract = _parentContract;\n    }\n\n    receive() external payable {\n        require(pricePaid == 0, \"Item is paid already\");\n        require(priceInWei == msg.value, \"Only full payments allowed\");\n        pricePaid += msg.value;\n        (bool success, ) = address(parentContract).call{ value: msg.value }(abi.encodeWithSignature(\"triggerPayment(uint256)\", index));\n        require(success, \"The transaction wasn't successful, canceling\");\n    }\n    fallback() external payable {\n        \n    }\n}\n\ncontract SupplyChain is Ownable {\n    enum State { Created, Paid, Delivered }\n\n    struct S_Item {\n        Item _item;\n        string _identifier;\n        uint _itemPrice;\n        State _state;\n    }\n\n    mapping(uint => S_Item) public items;\n    uint itemIndex;\n\n    event SupplyChainStep(uint _itemIndex, uint _step, address _itemAddress);\n\n    function createItem(string memory _identifier, uint _itemPrice) public onlyOwner {\n        Item item = new Item(this, _itemPrice, itemIndex);\n        items[itemIndex]._item = item;\n        items[itemIndex]._identifier = _identifier;\n        items[itemIndex]._itemPrice = _itemPrice;\n        items[itemIndex]._state = State.Created;\n        emit SupplyChainStep(itemIndex, uint(State.Created), address(item));\n        itemIndex++;\n    }\n\n    function triggerPayment(uint _itemIndex) public payable {\n        require(items[_itemIndex]._itemPrice == msg.value, \"Only full payments accepted\");\n        require(items[_itemIndex]._state == State.Created, \"Item state must in Created\");\n        items[_itemIndex]._state = State.Paid;\n        emit SupplyChainStep(_itemIndex, uint(State.Paid), address(items[_itemIndex]._item));\n    }\n\n    function triggerDispatch(uint _itemIndex) public onlyOwner {\n        require(items[_itemIndex]._state == State.Paid, \"Item state must in Paid\");\n        items[_itemIndex]._state = State.Delivered;\n        emit SupplyChainStep(_itemIndex, uint(State.Delivered), address(items[_itemIndex]._item));\n    }\n}\n",
  "sourcePath": "/Users/user/langlive/personal/smart-contract-samples/dapps/truffle-sample/contracts/SupplyChain.sol",
  "compiler": {
    "name": "solc",
    "version": "0.8.7+commit.e28d00a7.Emscripten.clang"
  },
  "schemaVersion": "3.4.7",
  "updatedAt": "2022-05-06T02:37:29.297Z",
  "networkType": "ethereum",
  "devdoc": {
    "kind": "dev",
    "methods": {
      "owner()": {
        "details": "Returns the address of the current owner."
      },
      "renounceOwnership()": {
        "details": "Leaves the contract without owner. It will not be possible to call `onlyOwner` functions anymore. Can only be called by the current owner. NOTE: Renouncing ownership will leave the contract without an owner, thereby removing any functionality that is only available to the owner."
      },
      "transferOwnership(address)": {
        "details": "Transfers ownership of the contract to a new account (`newOwner`). Can only be called by the current owner."
      }
    },
    "version": 1
  },
  "userdoc": {
    "kind": "user",
    "methods": {},
    "version": 1
  }
}